{
  "_format": "hh-sol-artifact-1",
  "contractName": "SkyBuds",
  "sourceName": "contracts/SkyBuds.sol",
  "abi": [
    {
      "inputs": [
        {
          "internalType": "address",
          "name": "_addressContractMetadata",
          "type": "address"
        }
      ],
      "stateMutability": "nonpayable",
      "type": "constructor"
    },
    {
      "inputs": [
        {
          "internalType": "address",
          "name": "sender",
          "type": "address"
        },
        {
          "internalType": "uint256",
          "name": "tokenId",
          "type": "uint256"
        },
        {
          "internalType": "address",
          "name": "owner",
          "type": "address"
        }
      ],
      "name": "ERC721IncorrectOwner",
      "type": "error"
    },
    {
      "inputs": [
        {
          "internalType": "address",
          "name": "operator",
          "type": "address"
        },
        {
          "internalType": "uint256",
          "name": "tokenId",
          "type": "uint256"
        }
      ],
      "name": "ERC721InsufficientApproval",
      "type": "error"
    },
    {
      "inputs": [
        {
          "internalType": "address",
          "name": "approver",
          "type": "address"
        }
      ],
      "name": "ERC721InvalidApprover",
      "type": "error"
    },
    {
      "inputs": [
        {
          "internalType": "address",
          "name": "operator",
          "type": "address"
        }
      ],
      "name": "ERC721InvalidOperator",
      "type": "error"
    },
    {
      "inputs": [
        {
          "internalType": "address",
          "name": "owner",
          "type": "address"
        }
      ],
      "name": "ERC721InvalidOwner",
      "type": "error"
    },
    {
      "inputs": [
        {
          "internalType": "address",
          "name": "receiver",
          "type": "address"
        }
      ],
      "name": "ERC721InvalidReceiver",
      "type": "error"
    },
    {
      "inputs": [
        {
          "internalType": "address",
          "name": "sender",
          "type": "address"
        }
      ],
      "name": "ERC721InvalidSender",
      "type": "error"
    },
    {
      "inputs": [
        {
          "internalType": "uint256",
          "name": "tokenId",
          "type": "uint256"
        }
      ],
      "name": "ERC721NonexistentToken",
      "type": "error"
    },
    {
      "inputs": [
        {
          "internalType": "address",
          "name": "owner",
          "type": "address"
        }
      ],
      "name": "OwnableInvalidOwner",
      "type": "error"
    },
    {
      "inputs": [
        {
          "internalType": "address",
          "name": "account",
          "type": "address"
        }
      ],
      "name": "OwnableUnauthorizedAccount",
      "type": "error"
    },
    {
      "inputs": [],
      "name": "ReentrancyGuardReentrantCall",
      "type": "error"
    },
    {
      "anonymous": false,
      "inputs": [
        {
          "indexed": true,
          "internalType": "address",
          "name": "owner",
          "type": "address"
        },
        {
          "indexed": true,
          "internalType": "address",
          "name": "approved",
          "type": "address"
        },
        {
          "indexed": true,
          "internalType": "uint256",
          "name": "tokenId",
          "type": "uint256"
        }
      ],
      "name": "Approval",
      "type": "event"
    },
    {
      "anonymous": false,
      "inputs": [
        {
          "indexed": true,
          "internalType": "address",
          "name": "owner",
          "type": "address"
        },
        {
          "indexed": true,
          "internalType": "address",
          "name": "operator",
          "type": "address"
        },
        {
          "indexed": false,
          "internalType": "bool",
          "name": "approved",
          "type": "bool"
        }
      ],
      "name": "ApprovalForAll",
      "type": "event"
    },
    {
      "anonymous": false,
      "inputs": [
        {
          "indexed": true,
          "internalType": "address",
          "name": "previousOwner",
          "type": "address"
        },
        {
          "indexed": true,
          "internalType": "address",
          "name": "newOwner",
          "type": "address"
        }
      ],
      "name": "OwnershipTransferred",
      "type": "event"
    },
    {
      "anonymous": false,
      "inputs": [
        {
          "indexed": true,
          "internalType": "address",
          "name": "from",
          "type": "address"
        },
        {
          "indexed": true,
          "internalType": "address",
          "name": "to",
          "type": "address"
        },
        {
          "indexed": true,
          "internalType": "uint256",
          "name": "tokenId",
          "type": "uint256"
        }
      ],
      "name": "Transfer",
      "type": "event"
    },
    {
      "inputs": [],
      "name": "MAX_TOKENS",
      "outputs": [
        {
          "internalType": "uint256",
          "name": "",
          "type": "uint256"
        }
      ],
      "stateMutability": "view",
      "type": "function"
    },
    {
      "inputs": [
        {
          "internalType": "address",
          "name": "to",
          "type": "address"
        },
        {
          "internalType": "uint256",
          "name": "tokenId",
          "type": "uint256"
        }
      ],
      "name": "approve",
      "outputs": [],
      "stateMutability": "nonpayable",
      "type": "function"
    },
    {
      "inputs": [
        {
          "internalType": "address",
          "name": "owner",
          "type": "address"
        }
      ],
      "name": "balanceOf",
      "outputs": [
        {
          "internalType": "uint256",
          "name": "",
          "type": "uint256"
        }
      ],
      "stateMutability": "view",
      "type": "function"
    },
    {
      "inputs": [],
      "name": "contractSkybudsMetadata",
      "outputs": [
        {
          "internalType": "contract SkyBudsMetadata",
          "name": "",
          "type": "address"
        }
      ],
      "stateMutability": "view",
      "type": "function"
    },
    {
      "inputs": [
        {
          "internalType": "uint256",
          "name": "tokenId",
          "type": "uint256"
        }
      ],
      "name": "getApproved",
      "outputs": [
        {
          "internalType": "address",
          "name": "",
          "type": "address"
        }
      ],
      "stateMutability": "view",
      "type": "function"
    },
    {
      "inputs": [
        {
          "internalType": "address",
          "name": "owner",
          "type": "address"
        },
        {
          "internalType": "address",
          "name": "operator",
          "type": "address"
        }
      ],
      "name": "isApprovedForAll",
      "outputs": [
        {
          "internalType": "bool",
          "name": "",
          "type": "bool"
        }
      ],
      "stateMutability": "view",
      "type": "function"
    },
    {
      "inputs": [
        {
          "internalType": "uint256[]",
          "name": "wearables",
          "type": "uint256[]"
        },
        {
          "internalType": "uint256",
          "name": "laziness",
          "type": "uint256"
        },
        {
          "internalType": "uint256",
          "name": "speed",
          "type": "uint256"
        },
        {
          "internalType": "uint256",
          "name": "isTalkative",
          "type": "uint256"
        },
        {
          "internalType": "string",
          "name": "color",
          "type": "string"
        },
        {
          "internalType": "string",
          "name": "base64uri",
          "type": "string"
        }
      ],
      "name": "mint",
      "outputs": [
        {
          "internalType": "uint256",
          "name": "",
          "type": "uint256"
        }
      ],
      "stateMutability": "nonpayable",
      "type": "function"
    },
    {
      "inputs": [],
      "name": "name",
      "outputs": [
        {
          "internalType": "string",
          "name": "",
          "type": "string"
        }
      ],
      "stateMutability": "view",
      "type": "function"
    },
    {
      "inputs": [],
      "name": "owner",
      "outputs": [
        {
          "internalType": "address",
          "name": "",
          "type": "address"
        }
      ],
      "stateMutability": "view",
      "type": "function"
    },
    {
      "inputs": [
        {
          "internalType": "uint256",
          "name": "tokenId",
          "type": "uint256"
        }
      ],
      "name": "ownerOf",
      "outputs": [
        {
          "internalType": "address",
          "name": "",
          "type": "address"
        }
      ],
      "stateMutability": "view",
      "type": "function"
    },
    {
      "inputs": [],
      "name": "renounceOwnership",
      "outputs": [],
      "stateMutability": "nonpayable",
      "type": "function"
    },
    {
      "inputs": [
        {
          "internalType": "address",
          "name": "from",
          "type": "address"
        },
        {
          "internalType": "address",
          "name": "to",
          "type": "address"
        },
        {
          "internalType": "uint256",
          "name": "tokenId",
          "type": "uint256"
        }
      ],
      "name": "safeTransferFrom",
      "outputs": [],
      "stateMutability": "nonpayable",
      "type": "function"
    },
    {
      "inputs": [
        {
          "internalType": "address",
          "name": "from",
          "type": "address"
        },
        {
          "internalType": "address",
          "name": "to",
          "type": "address"
        },
        {
          "internalType": "uint256",
          "name": "tokenId",
          "type": "uint256"
        },
        {
          "internalType": "bytes",
          "name": "data",
          "type": "bytes"
        }
      ],
      "name": "safeTransferFrom",
      "outputs": [],
      "stateMutability": "nonpayable",
      "type": "function"
    },
    {
      "inputs": [
        {
          "internalType": "address",
          "name": "operator",
          "type": "address"
        },
        {
          "internalType": "bool",
          "name": "approved",
          "type": "bool"
        }
      ],
      "name": "setApprovalForAll",
      "outputs": [],
      "stateMutability": "nonpayable",
      "type": "function"
    },
    {
      "inputs": [
        {
          "internalType": "address",
          "name": "_addressContractMetadata",
          "type": "address"
        }
      ],
      "name": "setMetadataContractAddress",
      "outputs": [],
      "stateMutability": "nonpayable",
      "type": "function"
    },
    {
      "inputs": [
        {
          "internalType": "bytes4",
          "name": "interfaceId",
          "type": "bytes4"
        }
      ],
      "name": "supportsInterface",
      "outputs": [
        {
          "internalType": "bool",
          "name": "",
          "type": "bool"
        }
      ],
      "stateMutability": "view",
      "type": "function"
    },
    {
      "inputs": [],
      "name": "symbol",
      "outputs": [
        {
          "internalType": "string",
          "name": "",
          "type": "string"
        }
      ],
      "stateMutability": "view",
      "type": "function"
    },
    {
      "inputs": [
        {
          "internalType": "uint256",
          "name": "tokenId",
          "type": "uint256"
        }
      ],
      "name": "tokenURI",
      "outputs": [
        {
          "internalType": "string",
          "name": "",
          "type": "string"
        }
      ],
      "stateMutability": "view",
      "type": "function"
    },
    {
      "inputs": [],
      "name": "totalSupply",
      "outputs": [
        {
          "internalType": "uint256",
          "name": "",
          "type": "uint256"
        }
      ],
      "stateMutability": "view",
      "type": "function"
    },
    {
      "inputs": [
        {
          "internalType": "address",
          "name": "from",
          "type": "address"
        },
        {
          "internalType": "address",
          "name": "to",
          "type": "address"
        },
        {
          "internalType": "uint256",
          "name": "tokenId",
          "type": "uint256"
        }
      ],
      "name": "transferFrom",
      "outputs": [],
      "stateMutability": "nonpayable",
      "type": "function"
    },
    {
      "inputs": [
        {
          "internalType": "address",
          "name": "newOwner",
          "type": "address"
        }
      ],
      "name": "transferOwnership",
      "outputs": [],
      "stateMutability": "nonpayable",
      "type": "function"
    },
    {
      "inputs": [
        {
          "internalType": "uint256",
          "name": "tokenId",
          "type": "uint256"
        },
        {
          "internalType": "string",
          "name": "base64Uri",
          "type": "string"
        }
      ],
      "name": "updateBase64Uri",
      "outputs": [],
      "stateMutability": "nonpayable",
      "type": "function"
    },
    {
      "inputs": [
        {
          "internalType": "uint256",
          "name": "tokenId",
          "type": "uint256"
        },
        {
          "internalType": "uint256[]",
          "name": "wearables",
          "type": "uint256[]"
        },
        {
          "internalType": "uint256",
          "name": "laziness",
          "type": "uint256"
        },
        {
          "internalType": "uint256",
          "name": "speed",
          "type": "uint256"
        },
        {
          "internalType": "uint256",
          "name": "isTalkative",
          "type": "uint256"
        },
        {
          "internalType": "string",
          "name": "color",
          "type": "string"
        },
        {
          "internalType": "string",
          "name": "base64uri",
          "type": "string"
        }
      ],
      "name": "updateMetadata",
      "outputs": [],
      "stateMutability": "nonpayable",
      "type": "function"
    },
    {
      "inputs": [
        {
          "internalType": "uint256",
          "name": "tokenId",
          "type": "uint256"
        },
        {
          "internalType": "uint256[]",
          "name": "wearableIds",
          "type": "uint256[]"
        }
      ],
      "name": "updateWearables",
      "outputs": [],
      "stateMutability": "nonpayable",
      "type": "function"
    }
  ],
  "bytecode": "0x6080604052346103b0576000611bc26020813803918261001e816103b5565b9384928339810103126103ac57516001600160a01b038116908190036103ac5761004860406103b5565b916007835266536b794275647360c81b602084015261006760406103b5565b600381526229a5a160e91b60208201526001825583519092906001600160401b0381116102bc57600154600181811c911680156103a2575b602082101461029e57601f811161033f575b50602094601f82116001146102db5794839495829394926102d0575b50508160011b916000199060031b1c1916176001555b82516001600160401b0381116102bc57600254600181811c911680156102b2575b602082101461029e57601f811161023b575b506020601f82116001146101d8578394829394926101cd575b50508160011b916000199060031b1c1916176002555b33156101b95760078054336001600160a01b0319821681179092556040519391906001600160a01b03167f8be0079c531659141344cd1fd0a4f28419497f9722a3daafe3b4186f6b6457e08380a3506001600855600980546001600160a01b0319169190911790556117d190816103f18239f35b631e4fbdf760e01b82526004829052602482fd5b01519050388061012f565b6002845280842090601f198316855b8181106102235750958360019596971061020a575b505050811b01600255610145565b015160001960f88460031b161c191690553880806101fc565b9192602060018192868b0151815501940192016101e7565b600284527f405787fa12a823e0f2b7631cc41b3ba8828b3321ca811111fa75cd3aa3bb5ace601f830160051c81019160208410610294575b601f0160051c01905b8181106102895750610116565b84815560010161027c565b9091508190610273565b634e487b7160e01b84526022600452602484fd5b90607f1690610104565b634e487b7160e01b83526041600452602483fd5b0151905038806100cd565b601f198216956001855280852091855b8881106103275750836001959697981061030e575b505050811b016001556100e3565b015160001960f88460031b161c19169055388080610300565b919260206001819286850151815501940192016102eb565b600184527fb10e2d527612073b26eecdfd717e6a320cf44b4afac2b0732d9fcbe2b7fa0cf6601f830160051c81019160208410610398575b601f0160051c01905b81811061038d57506100b1565b848155600101610380565b9091508190610377565b90607f169061009f565b5080fd5b600080fd5b6040519190601f01601f191682016001600160401b038111838210176103da57604052565b634e487b7160e01b600052604160045260246000fdfe608080604052600436101561001357600080fd5b600090813560e01c90816301ffc9a7146110ab5750806303753cf61461108257806306fdde0314610fc5578063081812fc14610f88578063095ea7b314610ea057806318160ddd14610e6057806323b872dd14610e4857806332d236a614610d6657806342842e0e14610d365780634d74d3b414610cf15780636352211e14610cc05780636ae83f7914610c0c57806370a0823114610bb9578063715018a614610b5c5780638da5cb5b14610b3357806395d89b4114610a26578063a22cb46514610986578063ad475d0e1461061c578063b88d4fde146105ad578063c87b56dd14610411578063e4b152781461022b578063e985e9c5146101d1578063f2fde38b146101485763f47c84c51461012957600080fd5b3461014557806003193601126101455760206040516107d08152f35b80fd5b503461014557602036600319011261014557610162611160565b61016a611635565b6001600160a01b031680156101bd57600780546001600160a01b0319811683179091556001600160a01b03167f8be0079c531659141344cd1fd0a4f28419497f9722a3daafe3b4186f6b6457e08380a380f35b631e4fbdf760e01b82526004829052602482fd5b50346101455760403660031901126101455760406101ed611160565b916101f661117b565b9260018060a01b031681526006602052209060018060a01b0316600052602052602060ff604060002054166040519015158152f35b50346101455760e0366003190112610145576004356024356001600160401b03811161040d5761025f903690600401611272565b9060a4356001600160401b0381116104095761027f903690600401611254565b9160c4356001600160401b0381116104055761029f9036906004016112a2565b94909260085460001981019081116103f157821161039e576102c0826115fe565b336001600160a01b039091160361034e5760095487966001600160a01b0390911692833b1561034a5761031d8896928793604051998a988997889663371d2cd960e21b885260443592606435926001608435149260048b01611597565b03925af1801561033f5761032e5750f35b81610338916111cb565b6101455780f35b6040513d84823e3d90fd5b8780fd5b60405162461bcd60e51b815260206004820152602260248201527f4f6e6c7920746865206f776e65722063616e20757064617465206d6574616461604482015261746160f01b6064820152608490fd5b60405162461bcd60e51b815260206004820152602560248201527f4d657461646174612075706461746520666f72206e6f6e6578697374656e74206044820152643a37b5b2b760d91b6064820152608490fd5b634e487b7160e01b88526011600452602488fd5b8580fd5b8480fd5b8280fd5b5034610145576020366003190112610145576009546001600160a01b0316600435811561056c57600854600019810190811161055857811161051357829060246040518094819363210fa96b60e01b835260048301525afa90811561033f578291610491575b6040516020808252819061048d9082018561113b565b0390f35b90503d8083833e6104a281836111cb565b81019060208183031261040d578051906001600160401b03821161050f570181601f8201121561040d578051926104d884611202565b926104e660405194856111cb565b84845260208584010111610145575061048d926105099160208085019101611118565b38610477565b8380fd5b60405162461bcd60e51b815260206004820152601f60248201527f55524920717565727920666f72206e6f6e6578697374656e7420746f6b656e006044820152606490fd5b634e487b7160e01b84526011600452602484fd5b60405162461bcd60e51b815260206004820152601960248201527813595d1859185d184818dbdb9d1c9858dd081b9bdd081cd95d603a1b6044820152606490fd5b5034610145576080366003190112610145576105c7611160565b6105cf61117b565b90604435606435926001600160401b03841161040957366023850112156104095761060761061994369060248160040135910161121d565b926106138383836112cf565b3361165e565b80f35b50346101455760c0366003190112610145576004356001600160401b0381116109315761064d903690600401611272565b906084356001600160401b03811161050f5761066d903690600401611254565b60a4356001600160401b0381116104095761068c9036906004016112a2565b600854949091600019861461097257600186016008556107d086116109395786946106b8841515611527565b6009546001600160a01b031691823b15610935578761070088968793604051998a988997889663371d2cd960e21b885260243592604435926001606435149260048b01611597565b03925af1801561033f5761091c575b505060209160405161072184826111cb565b8181523315610908578282526003845260408220546001600160a01b031680151590816108d4575b338085526004875260408086208054600101905586865260038852852080546001600160a01b031916821790558590827fddf252ad1be2c89b69c2b068fc378daa952ba7f163c4a11628f55a4df523b3ef8780a4506108c05783333b6107b2575b604051848152f35b6107ea9160405180938192630a85bd0160e11b835233600484015286602484015287604484015260806064840152608483019061113b565b038185335af1829181610880575b5061084d5783823d15610846573d61080f81611202565b9061081d60405192836111cb565b81523d828483013e5b8051928361084157633250574960e11b835233600452602483fd5b019050fd5b6060610826565b6001600160e01b03191663757a42ff60e11b0161086d57503880836107aa565b633250574960e11b815233600452602490fd5b9091508481813d83116108b9575b61089881836111cb565b8101031261040d57516001600160e01b03198116810361040d5790386107f8565b503d61088e565b6339e3563760e11b82526004829052602482fd5b600085815260056020526040902080546001600160a01b031916905580845260048652604084208054600019019055610749565b633250574960e11b82526004829052602482fd5b81610926916111cb565b61093157813861070f565b5080fd5b8680fd5b60405162461bcd60e51b815260206004820152601160248201527013585e081d1bdad95b9cc81b5a5b9d1959607a1b6044820152606490fd5b634e487b7160e01b87526011600452602487fd5b5034610145576040366003190112610145576109a0611160565b6024359081151580920361040d576001600160a01b0316908115610a125733835260066020526040832082600052602052604060002060ff1981541660ff83161790556040519081527f17307eab39ab6107e8899845ad3d59bd9653f200f220920489ca2b5937696c3160203392a380f35b630b61174360e31b83526004829052602483fd5b50346101455780600319360112610145576040519080600254908160011c91600181168015610b29575b602084108114610b1557838652908115610aee5750600114610a91575b61048d84610a7d818603826111cb565b60405191829160208352602083019061113b565b600281527f405787fa12a823e0f2b7631cc41b3ba8828b3321ca811111fa75cd3aa3bb5ace939250905b808210610ad457509091508101602001610a7d82610a6d565b919260018160209254838588010152019101909291610abb565b60ff191660208087019190915292151560051b85019092019250610a7d9150839050610a6d565b634e487b7160e01b83526022600452602483fd5b92607f1692610a50565b50346101455780600319360112610145576007546040516001600160a01b039091168152602090f35b5034610145578060031936011261014557610b75611635565b600780546001600160a01b0319811690915581906001600160a01b03167f8be0079c531659141344cd1fd0a4f28419497f9722a3daafe3b4186f6b6457e08280a380f35b5034610145576020366003190112610145576001600160a01b03610bdb611160565b168015610bf8578160409160209352600483522054604051908152f35b6322718ad960e21b82526004829052602482fd5b503461014557604036600319011261014557600435906024356001600160401b03811161093157610c41903690600401611272565b600854600019810194919290851161055857610c608495831115611475565b610c7c610c6c836115fe565b6001600160a01b031633146114cf565b6009546001600160a01b0316803b156104095761031d9385809460405196879586948593636ae83f7960e01b85526004850152604060248501526044840191611573565b5034610145576020366003190112610145576020610cdf6004356115fe565b6040516001600160a01b039091168152f35b503461014557602036600319011261014557610d0b611160565b610d13611635565b600980546001600160a01b0319166001600160a01b039290921691909117905580f35b503461014557610619610d4836611191565b9060405192610d586020856111cb565b8584526106138383836112cf565b5034610145576040366003190112610145576004356024356001600160401b03811161040d57610d9a903690600401611254565b90610da3611635565b60085460001981019081116105585790610dc08492821115611475565b610dcc610c6c826115fe565b610dd883511515611527565b6009546001600160a01b031692833b1561040d57610e1c938392836040518097819582946319691b5360e11b8452600484015260406024840152604483019061113b565b03925af18015610e3b57610e2d5780f35b610e36916111cb565b388180f35b50604051903d90823e3d90fd5b503461014557610619610e5a36611191565b916112cf565b5034610145578060031936011261014557600854600019810191908211610e8c57602082604051908152f35b634e487b7160e01b81526011600452602490fd5b503461014557604036600319011261014557610eba611160565b602435610ec6816115fe565b33151580610f75575b80610f4a575b610f375781906001600160a01b0384811691167f8c5be1e5ebec7d5bd14f71427d1e84f3dd0314c0f7b2291e5b200ac8c7c3b9258680a4825260056020526040822080546001600160a01b0319166001600160a01b0390921691909117905580f35b63a9fbf51f60e01b845233600452602484fd5b506001600160a01b038116845260066020908152604080862033875290915284205460ff1615610ed5565b506001600160a01b038116331415610ecf565b503461014557602036600319011261014557602090600435610fa9816115fe565b50815260058252604060018060a01b0391205416604051908152f35b50346101455780600319360112610145576040519080600154908160011c91600181168015611078575b602084108114610b1557838652908115610aee575060011461101b5761048d84610a7d818603826111cb565b600181527fb10e2d527612073b26eecdfd717e6a320cf44b4afac2b0732d9fcbe2b7fa0cf6939250905b80821061105e57509091508101602001610a7d82610a6d565b919260018160209254838588010152019101909291611045565b92607f1692610fef565b50346101455780600319360112610145576009546040516001600160a01b039091168152602090f35b9050346109315760203660031901126109315760043563ffffffff60e01b811680910361040d57602092506380ac58cd60e01b8114908115611107575b81156110f6575b5015158152f35b6301ffc9a760e01b149050386110ef565b635b5e139f60e01b811491506110e8565b60005b83811061112b5750506000910152565b818101518382015260200161111b565b9060209161115481518092818552858086019101611118565b601f01601f1916010190565b600435906001600160a01b038216820361117657565b600080fd5b602435906001600160a01b038216820361117657565b6060906003190112611176576004356001600160a01b038116810361117657906024356001600160a01b0381168103611176579060443590565b90601f801991011681019081106001600160401b038211176111ec57604052565b634e487b7160e01b600052604160045260246000fd5b6001600160401b0381116111ec57601f01601f191660200190565b92919261122982611202565b9161123760405193846111cb565b829481845281830111611176578281602093846000960137010152565b9080601f830112156111765781602061126f9335910161121d565b90565b9181601f84011215611176578235916001600160401b038311611176576020808501948460051b01011161117657565b9181601f84011215611176578235916001600160401b038311611176576020838186019501011161117657565b6001600160a01b039091169190821561145f576000828152600360205260408120546001600160a01b03169383918590331515806113c7575b507fddf252ad1be2c89b69c2b068fc378daa952ba7f163c4a11628f55a4df523b3ef9082611392575b838152600460209081526040808320805460010190558683526003909152812080546001600160a01b0319168517905580a46001600160a01b031680830361137857505050565b6364283d7b60e01b60005260045260245260445260646000fd5b600085815260056020526040902080546001600160a01b03191690558281526004602052604081208054600019019055611331565b915091925080611410575b156113e1579084849238611308565b8390856113fa57602491637e27328960e01b8252600452fd5b60449163177e802f60e01b825233600452602452fd5b50338514801561143e575b806113d25750838152600560205260408120546001600160a01b031633146113d2565b5084815260066020908152604080832033845290915281205460ff1661141b565b633250574960e11b600052600060045260246000fd5b1561147c57565b60405162461bcd60e51b815260206004820152602560248201527f5765617261626c652075706461746520666f72206e6f6e6578697374656e74206044820152643a37b5b2b760d91b6064820152608490fd5b156114d657565b60405162461bcd60e51b815260206004820152602360248201527f4f6e6c7920746865206f776e65722063616e20757064617465207765617261626044820152626c657360e81b6064820152608490fd5b1561152e57565b60405162461bcd60e51b815260206004820152601a60248201527f426173653634205552492063616e6e6f7420626520656d7074790000000000006044820152606490fd5b81835290916001600160fb1b0383116111765760209260051b809284830137010190565b97946115bb8a98936115da969560209c99948c5260e08d8d015260e08c0191611573565b93151560408a01526060890152608088015286820360a088015261113b565b9360c0818603910152818452848401376000828201840152601f01601f1916010190565b6000818152600360205260409020546001600160a01b0316908115611621575090565b637e27328960e01b60005260045260246000fd5b6007546001600160a01b0316330361164957565b63118cdaa760e01b6000523360045260246000fd5b823b61166c575b5050505050565b604051630a85bd0160e11b81526001600160a01b0391821660048201529181166024830152604482019390935260806064820152911691602090829081906116b890608483019061113b565b03816000865af18091600091611758575b509061172257503d1561171b573d6116e081611202565b906116ee60405192836111cb565b81523d6000602083013e5b805190816117165782633250574960e11b60005260045260246000fd5b602001fd5b60606116f9565b6001600160e01b03191663757a42ff60e11b0161174457503880808080611665565b633250574960e11b60005260045260246000fd5b6020813d602011611793575b81611771602093836111cb565b810103126109315751906001600160e01b0319821682036101455750386116c9565b3d915061176456fea26469706673582212201d76431f7c5d441c46b4b5b8581d50db07185fef8d7949e6a35aa37256010a8964736f6c634300081c0033",
  "linkReferences": {},
  "deployedLinkReferences": {}
}